{
  "_format": "hh-sol-artifact-1",
  "contractName": "GameContract",
  "sourceName": "contracts/GameContract.sol",
  "abi": [
    {
      "inputs": [
        {
          "internalType": "uint256",
          "name": "_gameDuration",
          "type": "uint256"
        },
        {
          "internalType": "uint256",
          "name": "_minRewardAmount",
          "type": "uint256"
        },
        {
          "internalType": "uint256",
          "name": "_maxRewardAmount",
          "type": "uint256"
        }
      ],
      "stateMutability": "payable",
      "type": "constructor"
    },
    {
      "anonymous": false,
      "inputs": [
        {
          "indexed": true,
          "internalType": "address",
          "name": "player",
          "type": "address"
        },
        {
          "indexed": false,
          "internalType": "enum GameContract.Achievement",
          "name": "achievement",
          "type": "uint8"
        },
        {
          "indexed": false,
          "internalType": "uint256",
          "name": "timestamp",
          "type": "uint256"
        }
      ],
      "name": "AchievementUnlocked",
      "type": "event"
    },
    {
      "anonymous": false,
      "inputs": [
        {
          "indexed": true,
          "internalType": "address",
          "name": "player",
          "type": "address"
        },
        {
          "indexed": false,
          "internalType": "uint256",
          "name": "rewardAmount",
          "type": "uint256"
        },
        {
          "indexed": false,
          "internalType": "uint256",
          "name": "timestamp",
          "type": "uint256"
        }
      ],
      "name": "AnswerCorrect",
      "type": "event"
    },
    {
      "anonymous": false,
      "inputs": [
        {
          "indexed": true,
          "internalType": "address",
          "name": "player",
          "type": "address"
        },
        {
          "indexed": false,
          "internalType": "uint256",
          "name": "timestamp",
          "type": "uint256"
        }
      ],
      "name": "AnswerIncorrect",
      "type": "event"
    },
    {
      "anonymous": false,
      "inputs": [
        {
          "indexed": true,
          "internalType": "address",
          "name": "player",
          "type": "address"
        },
        {
          "indexed": true,
          "internalType": "address",
          "name": "friend",
          "type": "address"
        },
        {
          "indexed": false,
          "internalType": "uint256",
          "name": "timestamp",
          "type": "uint256"
        }
      ],
      "name": "FriendAdded",
      "type": "event"
    },
    {
      "anonymous": false,
      "inputs": [
        {
          "indexed": true,
          "internalType": "address",
          "name": "player",
          "type": "address"
        },
        {
          "indexed": true,
          "internalType": "address",
          "name": "friend",
          "type": "address"
        },
        {
          "indexed": false,
          "internalType": "uint256",
          "name": "timestamp",
          "type": "uint256"
        }
      ],
      "name": "FriendRemoved",
      "type": "event"
    },
    {
      "anonymous": false,
      "inputs": [
        {
          "indexed": true,
          "internalType": "address",
          "name": "depositor",
          "type": "address"
        },
        {
          "indexed": false,
          "internalType": "uint256",
          "name": "amount",
          "type": "uint256"
        }
      ],
      "name": "FundsDeposited",
      "type": "event"
    },
    {
      "anonymous": false,
      "inputs": [
        {
          "indexed": true,
          "internalType": "address",
          "name": "owner",
          "type": "address"
        },
        {
          "indexed": false,
          "internalType": "uint256",
          "name": "amount",
          "type": "uint256"
        }
      ],
      "name": "FundsWithdrawn",
      "type": "event"
    },
    {
      "anonymous": false,
      "inputs": [
        {
          "indexed": true,
          "internalType": "address",
          "name": "player",
          "type": "address"
        },
        {
          "indexed": false,
          "internalType": "uint256",
          "name": "totalSubmissions",
          "type": "uint256"
        },
        {
          "indexed": false,
          "internalType": "uint256",
          "name": "timestamp",
          "type": "uint256"
        }
      ],
      "name": "GameCompleted",
      "type": "event"
    },
    {
      "anonymous": false,
      "inputs": [
        {
          "indexed": false,
          "internalType": "uint256",
          "name": "oldDuration",
          "type": "uint256"
        },
        {
          "indexed": false,
          "internalType": "uint256",
          "name": "newDuration",
          "type": "uint256"
        }
      ],
      "name": "GameDurationUpdated",
      "type": "event"
    },
    {
      "anonymous": false,
      "inputs": [
        {
          "indexed": true,
          "internalType": "address",
          "name": "player",
          "type": "address"
        },
        {
          "indexed": false,
          "internalType": "bytes32",
          "name": "answerHash",
          "type": "bytes32"
        },
        {
          "indexed": false,
          "internalType": "uint256",
          "name": "startTime",
          "type": "uint256"
        },
        {
          "indexed": false,
          "internalType": "uint256",
          "name": "endTime",
          "type": "uint256"
        },
        {
          "indexed": false,
          "internalType": "uint256",
          "name": "rewardAmount",
          "type": "uint256"
        },
        {
          "indexed": false,
          "internalType": "enum GameContract.Difficulty",
          "name": "difficulty",
          "type": "uint8"
        },
        {
          "indexed": false,
          "internalType": "uint256",
          "name": "hintCost",
          "type": "uint256"
        }
      ],
      "name": "GameStarted",
      "type": "event"
    },
    {
      "anonymous": false,
      "inputs": [
        {
          "indexed": true,
          "internalType": "uint256",
          "name": "templateId",
          "type": "uint256"
        },
        {
          "indexed": false,
          "internalType": "bytes32",
          "name": "answerHash",
          "type": "bytes32"
        },
        {
          "indexed": false,
          "internalType": "enum GameContract.Difficulty",
          "name": "difficulty",
          "type": "uint8"
        },
        {
          "indexed": false,
          "internalType": "uint256",
          "name": "baseRewardAmount",
          "type": "uint256"
        }
      ],
      "name": "GameTemplateAdded",
      "type": "event"
    },
    {
      "anonymous": false,
      "inputs": [
        {
          "indexed": true,
          "internalType": "address",
          "name": "player",
          "type": "address"
        },
        {
          "indexed": false,
          "internalType": "string",
          "name": "guess",
          "type": "string"
        },
        {
          "indexed": false,
          "internalType": "uint256",
          "name": "timestamp",
          "type": "uint256"
        }
      ],
      "name": "GuessSubmitted",
      "type": "event"
    },
    {
      "anonymous": false,
      "inputs": [
        {
          "indexed": true,
          "internalType": "address",
          "name": "player",
          "type": "address"
        },
        {
          "indexed": false,
          "internalType": "uint256",
          "name": "cost",
          "type": "uint256"
        },
        {
          "indexed": false,
          "internalType": "uint256",
          "name": "timestamp",
          "type": "uint256"
        }
      ],
      "name": "HintPurchased",
      "type": "event"
    },
    {
      "anonymous": false,
      "inputs": [
        {
          "indexed": true,
          "internalType": "address",
          "name": "previousOwner",
          "type": "address"
        },
        {
          "indexed": true,
          "internalType": "address",
          "name": "newOwner",
          "type": "address"
        }
      ],
      "name": "OwnershipTransferred",
      "type": "event"
    },
    {
      "anonymous": false,
      "inputs": [
        {
          "indexed": false,
          "internalType": "uint256",
          "name": "oldAmount",
          "type": "uint256"
        },
        {
          "indexed": false,
          "internalType": "uint256",
          "name": "newAmount",
          "type": "uint256"
        }
      ],
      "name": "RewardAmountUpdated",
      "type": "event"
    },
    {
      "inputs": [],
      "name": "MAX_FRIENDS",
      "outputs": [
        {
          "internalType": "uint256",
          "name": "",
          "type": "uint256"
        }
      ],
      "stateMutability": "view",
      "type": "function"
    },
    {
      "inputs": [
        {
          "internalType": "uint256",
          "name": "",
          "type": "uint256"
        }
      ],
      "name": "activeGameTemplateIds",
      "outputs": [
        {
          "internalType": "uint256",
          "name": "",
          "type": "uint256"
        }
      ],
      "stateMutability": "view",
      "type": "function"
    },
    {
      "inputs": [
        {
          "internalType": "address",
          "name": "_friend",
          "type": "address"
        }
      ],
      "name": "addFriend",
      "outputs": [],
      "stateMutability": "nonpayable",
      "type": "function"
    },
    {
      "inputs": [
        {
          "internalType": "bytes32",
          "name": "_answerHash",
          "type": "bytes32"
        },
        {
          "internalType": "uint256",
          "name": "_baseRewardAmount",
          "type": "uint256"
        },
        {
          "internalType": "enum GameContract.Difficulty",
          "name": "_difficulty",
          "type": "uint8"
        }
      ],
      "name": "addGameTemplate",
      "outputs": [],
      "stateMutability": "nonpayable",
      "type": "function"
    },
    {
      "inputs": [
        {
          "internalType": "address",
          "name": "_player1",
          "type": "address"
        },
        {
          "internalType": "address",
          "name": "_player2",
          "type": "address"
        }
      ],
      "name": "areFriends",
      "outputs": [
        {
          "internalType": "bool",
          "name": "",
          "type": "bool"
        }
      ],
      "stateMutability": "view",
      "type": "function"
    },
    {
      "inputs": [],
      "name": "buyHint",
      "outputs": [],
      "stateMutability": "payable",
      "type": "function"
    },
    {
      "inputs": [
        {
          "internalType": "string",
          "name": "_answer",
          "type": "string"
        }
      ],
      "name": "calculateAnswerHash",
      "outputs": [
        {
          "internalType": "bytes32",
          "name": "",
          "type": "bytes32"
        }
      ],
      "stateMutability": "pure",
      "type": "function"
    },
    {
      "inputs": [
        {
          "internalType": "uint256",
          "name": "_templateId",
          "type": "uint256"
        }
      ],
      "name": "deactivateGameTemplate",
      "outputs": [],
      "stateMutability": "nonpayable",
      "type": "function"
    },
    {
      "inputs": [],
      "name": "depositFunds",
      "outputs": [],
      "stateMutability": "payable",
      "type": "function"
    },
    {
      "inputs": [
        {
          "internalType": "enum GameContract.Difficulty",
          "name": "",
          "type": "uint8"
        }
      ],
      "name": "difficultyMultipliers",
      "outputs": [
        {
          "internalType": "uint256",
          "name": "",
          "type": "uint256"
        }
      ],
      "stateMutability": "view",
      "type": "function"
    },
    {
      "inputs": [
        {
          "internalType": "address",
          "name": "",
          "type": "address"
        }
      ],
      "name": "friendCount",
      "outputs": [
        {
          "internalType": "uint256",
          "name": "",
          "type": "uint256"
        }
      ],
      "stateMutability": "view",
      "type": "function"
    },
    {
      "inputs": [
        {
          "internalType": "address",
          "name": "",
          "type": "address"
        },
        {
          "internalType": "uint256",
          "name": "",
          "type": "uint256"
        }
      ],
      "name": "friends",
      "outputs": [
        {
          "internalType": "address",
          "name": "",
          "type": "address"
        }
      ],
      "stateMutability": "view",
      "type": "function"
    },
    {
      "inputs": [],
      "name": "gameDuration",
      "outputs": [
        {
          "internalType": "uint256",
          "name": "",
          "type": "uint256"
        }
      ],
      "stateMutability": "view",
      "type": "function"
    },
    {
      "inputs": [
        {
          "internalType": "uint256",
          "name": "",
          "type": "uint256"
        }
      ],
      "name": "gameTemplates",
      "outputs": [
        {
          "internalType": "bytes32",
          "name": "answerHash",
          "type": "bytes32"
        },
        {
          "internalType": "uint256",
          "name": "baseRewardAmount",
          "type": "uint256"
        },
        {
          "internalType": "enum GameContract.Difficulty",
          "name": "difficulty",
          "type": "uint8"
        },
        {
          "internalType": "bool",
          "name": "isActive",
          "type": "bool"
        }
      ],
      "stateMutability": "view",
      "type": "function"
    },
    {
      "inputs": [],
      "name": "getActiveGameTemplateCount",
      "outputs": [
        {
          "internalType": "uint256",
          "name": "",
          "type": "uint256"
        }
      ],
      "stateMutability": "view",
      "type": "function"
    },
    {
      "inputs": [],
      "name": "getContractBalance",
      "outputs": [
        {
          "internalType": "uint256",
          "name": "",
          "type": "uint256"
        }
      ],
      "stateMutability": "view",
      "type": "function"
    },
    {
      "inputs": [],
      "name": "getCurrentGame",
      "outputs": [
        {
          "components": [
            {
              "internalType": "uint256",
              "name": "gameId",
              "type": "uint256"
            },
            {
              "internalType": "bytes32",
              "name": "answerHash",
              "type": "bytes32"
            },
            {
              "internalType": "uint256",
              "name": "startTime",
              "type": "uint256"
            },
            {
              "internalType": "uint256",
              "name": "endTime",
              "type": "uint256"
            },
            {
              "internalType": "uint256",
              "name": "rewardAmount",
              "type": "uint256"
            },
            {
              "internalType": "enum GameContract.Difficulty",
              "name": "difficulty",
              "type": "uint8"
            },
            {
              "internalType": "uint256",
              "name": "hintCost",
              "type": "uint256"
            },
            {
              "internalType": "bool",
              "name": "isActive",
              "type": "bool"
            },
            {
              "internalType": "uint256",
              "name": "totalSubmissions",
              "type": "uint256"
            },
            {
              "internalType": "uint256",
              "name": "correctAnswers",
              "type": "uint256"
            }
          ],
          "internalType": "struct GameContract.Game",
          "name": "",
          "type": "tuple"
        }
      ],
      "stateMutability": "view",
      "type": "function"
    },
    {
      "inputs": [
        {
          "internalType": "address",
          "name": "_player",
          "type": "address"
        },
        {
          "internalType": "uint256",
          "name": "_count",
          "type": "uint256"
        }
      ],
      "name": "getFriendLeaderboard",
      "outputs": [
        {
          "components": [
            {
              "internalType": "address",
              "name": "player",
              "type": "address"
            },
            {
              "internalType": "uint256",
              "name": "score",
              "type": "uint256"
            },
            {
              "internalType": "bool",
              "name": "isFriend",
              "type": "bool"
            }
          ],
          "internalType": "struct GameContract.FriendLeaderboardEntry[]",
          "name": "",
          "type": "tuple[]"
        }
      ],
      "stateMutability": "view",
      "type": "function"
    },
    {
      "inputs": [
        {
          "internalType": "address",
          "name": "_player",
          "type": "address"
        }
      ],
      "name": "getFriends",
      "outputs": [
        {
          "internalType": "address[]",
          "name": "",
          "type": "address[]"
        }
      ],
      "stateMutability": "view",
      "type": "function"
    },
    {
      "inputs": [],
      "name": "getNewGame",
      "outputs": [],
      "stateMutability": "nonpayable",
      "type": "function"
    },
    {
      "inputs": [
        {
          "internalType": "address",
          "name": "_player",
          "type": "address"
        }
      ],
      "name": "getPlayerAchievements",
      "outputs": [
        {
          "internalType": "bool[]",
          "name": "",
          "type": "bool[]"
        }
      ],
      "stateMutability": "view",
      "type": "function"
    },
    {
      "inputs": [
        {
          "internalType": "address",
          "name": "_player",
          "type": "address"
        }
      ],
      "name": "getPlayerGame",
      "outputs": [
        {
          "components": [
            {
              "internalType": "uint256",
              "name": "gameId",
              "type": "uint256"
            },
            {
              "internalType": "bytes32",
              "name": "answerHash",
              "type": "bytes32"
            },
            {
              "internalType": "uint256",
              "name": "startTime",
              "type": "uint256"
            },
            {
              "internalType": "uint256",
              "name": "endTime",
              "type": "uint256"
            },
            {
              "internalType": "uint256",
              "name": "rewardAmount",
              "type": "uint256"
            },
            {
              "internalType": "enum GameContract.Difficulty",
              "name": "difficulty",
              "type": "uint8"
            },
            {
              "internalType": "uint256",
              "name": "hintCost",
              "type": "uint256"
            },
            {
              "internalType": "bool",
              "name": "isActive",
              "type": "bool"
            },
            {
              "internalType": "uint256",
              "name": "totalSubmissions",
              "type": "uint256"
            },
            {
              "internalType": "uint256",
              "name": "correctAnswers",
              "type": "uint256"
            }
          ],
          "internalType": "struct GameContract.Game",
          "name": "",
          "type": "tuple"
        }
      ],
      "stateMutability": "view",
      "type": "function"
    },
    {
      "inputs": [
        {
          "internalType": "address",
          "name": "_player",
          "type": "address"
        }
      ],
      "name": "getPlayerScore",
      "outputs": [
        {
          "internalType": "uint256",
          "name": "",
          "type": "uint256"
        }
      ],
      "stateMutability": "view",
      "type": "function"
    },
    {
      "inputs": [
        {
          "internalType": "address",
          "name": "_player",
          "type": "address"
        }
      ],
      "name": "getPlayerStats",
      "outputs": [
        {
          "components": [
            {
              "internalType": "uint256",
              "name": "totalGamesPlayed",
              "type": "uint256"
            },
            {
              "internalType": "uint256",
              "name": "correctAnswers",
              "type": "uint256"
            },
            {
              "internalType": "uint256",
              "name": "totalRewardsEarned",
              "type": "uint256"
            },
            {
              "internalType": "uint256",
              "name": "lastPlayedTime",
              "type": "uint256"
            },
            {
              "internalType": "uint256",
              "name": "hintsPurchased",
              "type": "uint256"
            },
            {
              "internalType": "uint256",
              "name": "currentStreak",
              "type": "uint256"
            },
            {
              "internalType": "uint256",
              "name": "bestStreak",
              "type": "uint256"
            }
          ],
          "internalType": "struct GameContract.PlayerStatsView",
          "name": "",
          "type": "tuple"
        }
      ],
      "stateMutability": "view",
      "type": "function"
    },
    {
      "inputs": [
        {
          "internalType": "uint256",
          "name": "_count",
          "type": "uint256"
        }
      ],
      "name": "getTopPlayers",
      "outputs": [
        {
          "components": [
            {
              "internalType": "address",
              "name": "player",
              "type": "address"
            },
            {
              "internalType": "uint256",
              "name": "score",
              "type": "uint256"
            }
          ],
          "internalType": "struct GameContract.LeaderboardEntry[]",
          "name": "",
          "type": "tuple[]"
        }
      ],
      "stateMutability": "view",
      "type": "function"
    },
    {
      "inputs": [
        {
          "internalType": "address",
          "name": "_player",
          "type": "address"
        },
        {
          "internalType": "enum GameContract.Achievement",
          "name": "_achievement",
          "type": "uint8"
        }
      ],
      "name": "hasAchievement",
      "outputs": [
        {
          "internalType": "bool",
          "name": "",
          "type": "bool"
        }
      ],
      "stateMutability": "view",
      "type": "function"
    },
    {
      "inputs": [
        {
          "internalType": "address",
          "name": "",
          "type": "address"
        }
      ],
      "name": "hasActiveGame",
      "outputs": [
        {
          "internalType": "bool",
          "name": "",
          "type": "bool"
        }
      ],
      "stateMutability": "view",
      "type": "function"
    },
    {
      "inputs": [
        {
          "internalType": "address",
          "name": "",
          "type": "address"
        }
      ],
      "name": "hasBoughtHint",
      "outputs": [
        {
          "internalType": "bool",
          "name": "",
          "type": "bool"
        }
      ],
      "stateMutability": "view",
      "type": "function"
    },
    {
      "inputs": [
        {
          "internalType": "address",
          "name": "_player",
          "type": "address"
        }
      ],
      "name": "hasPlayerBoughtHint",
      "outputs": [
        {
          "internalType": "bool",
          "name": "",
          "type": "bool"
        }
      ],
      "stateMutability": "view",
      "type": "function"
    },
    {
      "inputs": [
        {
          "internalType": "address",
          "name": "",
          "type": "address"
        },
        {
          "internalType": "uint256",
          "name": "",
          "type": "uint256"
        }
      ],
      "name": "hasWon",
      "outputs": [
        {
          "internalType": "bool",
          "name": "",
          "type": "bool"
        }
      ],
      "stateMutability": "view",
      "type": "function"
    },
    {
      "inputs": [
        {
          "internalType": "enum GameContract.Difficulty",
          "name": "",
          "type": "uint8"
        }
      ],
      "name": "hintCosts",
      "outputs": [
        {
          "internalType": "uint256",
          "name": "",
          "type": "uint256"
        }
      ],
      "stateMutability": "view",
      "type": "function"
    },
    {
      "inputs": [
        {
          "internalType": "address",
          "name": "",
          "type": "address"
        },
        {
          "internalType": "address",
          "name": "",
          "type": "address"
        }
      ],
      "name": "isFriend",
      "outputs": [
        {
          "internalType": "bool",
          "name": "",
          "type": "bool"
        }
      ],
      "stateMutability": "view",
      "type": "function"
    },
    {
      "inputs": [],
      "name": "maxRewardAmount",
      "outputs": [
        {
          "internalType": "uint256",
          "name": "",
          "type": "uint256"
        }
      ],
      "stateMutability": "view",
      "type": "function"
    },
    {
      "inputs": [],
      "name": "minRewardAmount",
      "outputs": [
        {
          "internalType": "uint256",
          "name": "",
          "type": "uint256"
        }
      ],
      "stateMutability": "view",
      "type": "function"
    },
    {
      "inputs": [],
      "name": "nextGameTemplateId",
      "outputs": [
        {
          "internalType": "uint256",
          "name": "",
          "type": "uint256"
        }
      ],
      "stateMutability": "view",
      "type": "function"
    },
    {
      "inputs": [],
      "name": "owner",
      "outputs": [
        {
          "internalType": "address",
          "name": "",
          "type": "address"
        }
      ],
      "stateMutability": "view",
      "type": "function"
    },
    {
      "inputs": [
        {
          "internalType": "address",
          "name": "",
          "type": "address"
        }
      ],
      "name": "playerGameTemplateId",
      "outputs": [
        {
          "internalType": "uint256",
          "name": "",
          "type": "uint256"
        }
      ],
      "stateMutability": "view",
      "type": "function"
    },
    {
      "inputs": [
        {
          "internalType": "address",
          "name": "",
          "type": "address"
        }
      ],
      "name": "playerGames",
      "outputs": [
        {
          "internalType": "uint256",
          "name": "gameId",
          "type": "uint256"
        },
        {
          "internalType": "bytes32",
          "name": "answerHash",
          "type": "bytes32"
        },
        {
          "internalType": "uint256",
          "name": "startTime",
          "type": "uint256"
        },
        {
          "internalType": "uint256",
          "name": "endTime",
          "type": "uint256"
        },
        {
          "internalType": "uint256",
          "name": "rewardAmount",
          "type": "uint256"
        },
        {
          "internalType": "enum GameContract.Difficulty",
          "name": "difficulty",
          "type": "uint8"
        },
        {
          "internalType": "uint256",
          "name": "hintCost",
          "type": "uint256"
        },
        {
          "internalType": "bool",
          "name": "isActive",
          "type": "bool"
        },
        {
          "internalType": "uint256",
          "name": "totalSubmissions",
          "type": "uint256"
        },
        {
          "internalType": "uint256",
          "name": "correctAnswers",
          "type": "uint256"
        }
      ],
      "stateMutability": "view",
      "type": "function"
    },
    {
      "inputs": [
        {
          "internalType": "address",
          "name": "_player",
          "type": "address"
        }
      ],
      "name": "playerHasActiveGame",
      "outputs": [
        {
          "internalType": "bool",
          "name": "",
          "type": "bool"
        }
      ],
      "stateMutability": "view",
      "type": "function"
    },
    {
      "inputs": [
        {
          "internalType": "address",
          "name": "",
          "type": "address"
        }
      ],
      "name": "playerScores",
      "outputs": [
        {
          "internalType": "uint256",
          "name": "",
          "type": "uint256"
        }
      ],
      "stateMutability": "view",
      "type": "function"
    },
    {
      "inputs": [
        {
          "internalType": "address",
          "name": "",
          "type": "address"
        }
      ],
      "name": "playerStats",
      "outputs": [
        {
          "internalType": "uint256",
          "name": "totalGamesPlayed",
          "type": "uint256"
        },
        {
          "internalType": "uint256",
          "name": "correctAnswers",
          "type": "uint256"
        },
        {
          "internalType": "uint256",
          "name": "totalRewardsEarned",
          "type": "uint256"
        },
        {
          "internalType": "uint256",
          "name": "lastPlayedTime",
          "type": "uint256"
        },
        {
          "internalType": "uint256",
          "name": "hintsPurchased",
          "type": "uint256"
        },
        {
          "internalType": "uint256",
          "name": "currentStreak",
          "type": "uint256"
        },
        {
          "internalType": "uint256",
          "name": "bestStreak",
          "type": "uint256"
        }
      ],
      "stateMutability": "view",
      "type": "function"
    },
    {
      "inputs": [
        {
          "internalType": "address",
          "name": "_friend",
          "type": "address"
        }
      ],
      "name": "removeFriend",
      "outputs": [],
      "stateMutability": "nonpayable",
      "type": "function"
    },
    {
      "inputs": [
        {
          "internalType": "enum GameContract.Difficulty",
          "name": "_difficulty",
          "type": "uint8"
        },
        {
          "internalType": "uint256",
          "name": "_multiplier",
          "type": "uint256"
        }
      ],
      "name": "setDifficultyMultiplier",
      "outputs": [],
      "stateMutability": "nonpayable",
      "type": "function"
    },
    {
      "inputs": [
        {
          "internalType": "uint256",
          "name": "_newDuration",
          "type": "uint256"
        }
      ],
      "name": "setGameDuration",
      "outputs": [],
      "stateMutability": "nonpayable",
      "type": "function"
    },
    {
      "inputs": [
        {
          "internalType": "enum GameContract.Difficulty",
          "name": "_difficulty",
          "type": "uint8"
        },
        {
          "internalType": "uint256",
          "name": "_cost",
          "type": "uint256"
        }
      ],
      "name": "setHintCost",
      "outputs": [],
      "stateMutability": "nonpayable",
      "type": "function"
    },
    {
      "inputs": [
        {
          "internalType": "uint256",
          "name": "_minReward",
          "type": "uint256"
        },
        {
          "internalType": "uint256",
          "name": "_maxReward",
          "type": "uint256"
        }
      ],
      "name": "setRewardLimits",
      "outputs": [],
      "stateMutability": "nonpayable",
      "type": "function"
    },
    {
      "inputs": [],
      "name": "startPlayerGame",
      "outputs": [],
      "stateMutability": "nonpayable",
      "type": "function"
    },
    {
      "inputs": [
        {
          "internalType": "string",
          "name": "_guess",
          "type": "string"
        }
      ],
      "name": "submitGuess",
      "outputs": [],
      "stateMutability": "nonpayable",
      "type": "function"
    },
    {
      "inputs": [
        {
          "internalType": "uint256",
          "name": "",
          "type": "uint256"
        }
      ],
      "name": "topPlayers",
      "outputs": [
        {
          "internalType": "address",
          "name": "",
          "type": "address"
        }
      ],
      "stateMutability": "view",
      "type": "function"
    },
    {
      "inputs": [
        {
          "internalType": "uint256",
          "name": "_amount",
          "type": "uint256"
        }
      ],
      "name": "withdrawFunds",
      "outputs": [],
      "stateMutability": "nonpayable",
      "type": "function"
    },
    {
      "stateMutability": "payable",
      "type": "receive"
    }
  ],
  "bytecode": "0x608060405260405161422e38038061422e8339810160408190526100229161020e565b600080546001600160a01b03191633179055600180558261007d5760405162461bcd60e51b815260206004820152601060248201526f24b73b30b634b210323ab930ba34b7b760811b60448201526064015b60405180910390fd5b600082116100c25760405162461bcd60e51b8152602060048201526012602482015271125b9d985b1a59081b5a5b881c995dd85c9960721b6044820152606401610074565b818110156101075760405162461bcd60e51b8152602060048201526012602482015271125b9d985b1a59081b585e081c995dd85c9960721b6044820152606401610074565b60029283556003919091556004556127107f05b8ccbb9d4d8fb16ea74ce3c29a41f1b461fbdaff4714a0d9a8eb05499746bc55613a987f1471eb6eb2c5e789fc3de43f8ce62938c7d1836ec861730447e2ada8fd81017b55614e207f89832631fb3c3307a103ba2c84ab569c64d6182a18893dcd163f0f1c2090733a556006602052655af3107a40007f54cdd369e4e8a8515e52ca72ec816c2101831ad1f18bf44102ed171459c9b4f8556601c6bf526340007f3e5fec24aa4dc4e5aee2e025e51e1392c72a2500577559fae9665c6d52bd6a315560005266038d7ea4c680007f8819ef417987f8ae7a81f42cdfb18815282fe989326fbff903d13cf0e03ace295561023c565b60008060006060848603121561022357600080fd5b5050815160208301516040909301519094929350919050565b613fe38061024b6000396000f3fe6080604052600436106102cd5760003560e01c80639ce67bdd11610175578063c516f2b5116100dc578063df12581f11610095578063e2c41dbc1161006f578063e2c41dbc14610b29578063e8c1532914610b31578063f104a80d14610b47578063ff05b85e14610b7757600080fd5b8063df12581f14610abd578063e085c53914610add578063e1f0c37614610b1357600080fd5b8063c516f2b51461099a578063cdafbbb6146109ba578063ce00348f14610a47578063d226064114610a67578063d7a1cfe114610a87578063d90d5c0214610aa757600080fd5b8063afe9fb901161012e578063afe9fb90146108a7578063b002343b146108c7578063b9df4f24146108e7578063ba3c006714610907578063bb2f749414610934578063bcd757031461096157600080fd5b80639ce67bdd146107d5578063a2b946aa14610802578063a7a699fb14610817578063a9f6079a14610847578063adba200b14610867578063af137ca81461088757600080fd5b806362550ae1116102345780638110a800116101ed57806389a63ba5116101c757806389a63ba5146107465780638b1b47b21461075b5780638da5cb5b1461077b578063968d901b146107b357600080fd5b80638110a800146106c8578063822af3e9146107115780638585081d1461073e57600080fd5b806362550ae1146105ed5780636f9fb98a1461061a578063724c566a1461062d57806372796ea01461065a5780637eb7f9a11461069357806380cee8a5146106a857600080fd5b80634fd66eae116102865780634fd66eae1461045d578063511d1aeb146104d357806354ea665f1461050057806358e33a931461052d5780635b766196146105855780635cbb7caa146105c057600080fd5b80630c29e2531461030e57806312d3b8c914610332578063155dd5ee146103485780632da5d42e1461036a57806340056505146103b557806345fd14b01461043d57600080fd5b366103095760405134815233907f543ba50a5eec5e6178218e364b1d0f396157b3c8fa278522c2cb7fd99407d4749060200160405180910390a2005b600080fd5b34801561031a57600080fd5b506009545b6040519081526020015b60405180910390f35b34801561033e57600080fd5b5061031f60035481565b34801561035457600080fd5b506103686103633660046138ad565b610b97565b005b34801561037657600080fd5b506103a56103853660046138e2565b601360209081526000928352604080842090915290825290205460ff1681565b6040519015158152602001610329565b3480156103c157600080fd5b506104276103d0366004613915565b600a6020526000908152604090208054600182015460028301546003840154600485015460058601546006870154600788015460088901546009909901549798969795969495939460ff938416949293909116918a565b6040516103299a99989796959493929190613961565b34801561044957600080fd5b506103a56104583660046139bc565b610dbc565b34801561046957600080fd5b5061047d610478366004613915565b610e18565b6040516103299190600060e082019050825182526020830151602083015260408301516040830152606083015160608301526080830151608083015260a083015160a083015260c083015160c083015292915050565b3480156104df57600080fd5b5061031f6104ee366004613915565b600c6020526000908152604090205481565b34801561050c57600080fd5b5061031f61051b366004613a06565b60056020526000908152604090205481565b34801561053957600080fd5b506105756105483660046138ad565b60086020526000908152604090208054600182015460029092015490919060ff8082169161010090041684565b6040516103299493929190613a21565b34801561059157600080fd5b506103a56105a0366004613a4d565b600f60209081526000928352604080842090915290825290205460ff1681565b3480156105cc57600080fd5b506105e06105db366004613915565b610ec4565b6040516103299190613a77565b3480156105f957600080fd5b5061031f610608366004613915565b60116020526000908152604090205481565b34801561062657600080fd5b504761031f565b34801561063957600080fd5b5061064d610648366004613a4d565b610f3a565b6040516103299190613ac3565b34801561066657600080fd5b506103a5610675366004613915565b6001600160a01b03166000908152600e602052604090205460ff1690565b34801561069f57600080fd5b506103686110a1565b3480156106b457600080fd5b506103686106c3366004613915565b611487565b3480156106d457600080fd5b506103a56106e33660046138e2565b6001600160a01b03918216600090815260136020908152604080832093909416825291909152205460ff1690565b34801561071d57600080fd5b5061031f61072c366004613a06565b60066020526000908152604090205481565b610368611680565b34801561075257600080fd5b5061031f606481565b34801561076757600080fd5b50610368610776366004613b1f565b611a7a565b34801561078757600080fd5b5060005461079b906001600160a01b031681565b6040516001600160a01b039091168152602001610329565b3480156107bf57600080fd5b506107c8611b39565b6040516103299190613b41565b3480156107e157600080fd5b506107f56107f0366004613915565b611c33565b6040516103299190613bc5565b34801561080e57600080fd5b50610368611e14565b34801561082357600080fd5b506103a5610832366004613915565b600e6020526000908152604090205460ff1681565b34801561085357600080fd5b50610368610862366004613bff565b611ecc565b34801561087357600080fd5b506103686108823660046138ad565b6120ae565b34801561089357600080fd5b5061079b6108a23660046138ad565b6121fc565b3480156108b357600080fd5b506103686108c23660046138ad565b612226565b3480156108d357600080fd5b506103686108e2366004613c4a565b6122d8565b3480156108f357600080fd5b50610368610902366004613d03565b6125ce565b34801561091357600080fd5b506109276109223660046138ad565b6126c4565b6040516103299190613d1f565b34801561094057600080fd5b5061031f61094f366004613915565b60146020526000908152604090205481565b34801561096d57600080fd5b506103a561097c366004613915565b6001600160a01b03166000908152600b602052604090205460ff1690565b3480156109a657600080fd5b506103686109b5366004613d03565b61283a565b3480156109c657600080fd5b50610a126109d5366004613915565b600d602052600090815260409020805460018201546002830154600384015460048501546005860154600690960154949593949293919290919087565b604080519788526020880196909652948601939093526060850191909152608084015260a083015260c082015260e001610329565b348015610a5357600080fd5b506107c8610a62366004613915565b6128ba565b348015610a7357600080fd5b5061079b610a82366004613a4d565b6129b9565b348015610a9357600080fd5b50610368610aa2366004613915565b6129f1565b348015610ab357600080fd5b5061031f60075481565b348015610ac957600080fd5b5061031f610ad83660046138ad565b612c7a565b348015610ae957600080fd5b5061031f610af8366004613915565b6001600160a01b031660009081526011602052604090205490565b348015610b1f57600080fd5b5061031f60025481565b610368612c9b565b348015610b3d57600080fd5b5061031f60045481565b348015610b5357600080fd5b506103a5610b62366004613915565b600b6020526000908152604090205460ff1681565b348015610b8357600080fd5b5061031f610b92366004613c4a565b612d13565b6000546001600160a01b03163314610bca5760405162461bcd60e51b8152600401610bc190613d6c565b60405180910390fd5b600260015403610bec5760405162461bcd60e51b8152600401610bc190613d8f565b600260015547811115610c385760405162461bcd60e51b8152602060048201526014602482015273496e73756666696369656e742062616c616e636560601b6044820152606401610bc1565b60008111610c795760405162461bcd60e51b815260206004820152600e60248201526d125b9d985b1a5908185b5bdd5b9d60921b6044820152606401610bc1565b60006004546014610c8a9190613dcd565b905080610c978347613de4565b1015610cdc5760405162461bcd60e51b8152602060048201526014602482015273496e73756666696369656e74207265736572766560601b6044820152606401610bc1565b600080546040516001600160a01b039091169084908381818185875af1925050503d8060008114610d29576040519150601f19603f3d011682016040523d82523d6000602084013e610d2e565b606091505b5050905080610d715760405162461bcd60e51b815260206004820152600f60248201526e151c985b9cd9995c8819985a5b1959608a1b6044820152606401610bc1565b6000546040518481526001600160a01b03909116907feaff4b37086828766ad3268786972c0cd24259d4c87a80f9d3963a3c3d999b0d9060200160405180910390a250506001805550565b6001600160a01b0382166000908152600d6020526040812060070181836006811115610dea57610dea613937565b6006811115610dfb57610dfb613937565b815260208101919091526040016000205460ff1690505b92915050565b610e586040518060e00160405280600081526020016000815260200160008152602001600081526020016000815260200160008152602001600081525090565b506001600160a01b03166000908152600d6020908152604091829020825160e081018452815481526001820154928101929092526002810154928201929092526003820154606082015260048201546080820152600582015460a082015260069091015460c082015290565b6001600160a01b038116600090815260126020908152604091829020805483518184028101840190945280845260609392830182828015610f2e57602002820191906000526020600020905b81546001600160a01b03168152600190910190602001808311610f10575b50505050509050919050565b606060008211610f7c5760405162461bcd60e51b815260206004820152600d60248201526c125b9d985b1a590818dbdd5b9d609a1b6044820152606401610bc1565b60105480831115610f8b578092505b60008367ffffffffffffffff811115610fa657610fa6613c34565b604051908082528060200260200182016040528015610ff157816020015b6040805160608101825260008082526020808301829052928201528252600019909201910181610fc45790505b50905060005b848110156110985760006010828154811061101457611014613df7565b6000918252602080832090910154604080516060810182526001600160a01b03928316808252808652601185528286205482860152928c16855260138452818520838652909352928390205460ff1615159282019290925284519192509084908490811061108457611084613df7565b602090810291909101015250600101610ff7565b50949350505050565b336000908152600b602052604090205460ff16156110ef5760405162461bcd60e51b815260206004820152600b60248201526a47616d652061637469766560a81b6044820152606401610bc1565b6009546111295760405162461bcd60e51b81526020600482015260086024820152674e6f2067616d657360c01b6044820152606401610bc1565b600954604080514260208201526bffffffffffffffffffffffff193360601b1691810191909152446054820152436074820152600091906094016040516020818303038152906040528051906020012060001c6111869190613e23565b905060006009828154811061119d5761119d613df7565b60009182526020808320909101548083526008909152604090912060028101549192509060ff6101009091041661120a5760405162461bcd60e51b815260206004820152601160248201527054656d706c61746520696e61637469766560781b6044820152606401610bc1565b600280820154600091600591839160ff9091169081111561122d5761122d613937565b600281111561123e5761123e613937565b815260200190815260200160002054905060006127108284600101546112649190613dcd565b61126e9190613e37565b60025490915042906000906112839083613e4b565b600280870154919250600091600691839160ff16908111156112a7576112a7613937565b60028111156112b8576112b8613937565b8152602001908152602001600020549050604051806101400160405280888152602001876000015481526020018481526020018381526020018581526020018760020160009054906101000a900460ff16600281111561131a5761131a613937565b8152602001828152602001600115158152602001600081526020016000815250600a6000336001600160a01b03166001600160a01b03168152602001908152602001600020600082015181600001556020820151816001015560408201518160020155606082015181600301556080820151816004015560a08201518160050160006101000a81548160ff021916908360028111156113bb576113bb613937565b021790555060c0820151600682015560e082015160078201805491151560ff19928316179055610100830151600883015561012090920151600990910155336000818152600b60209081526040808320805486166001179055600c82528083208c9055600e90915290819020805490931690925587546002890154925191927f8d0daf68578c3ff32d4f2a7e910a3f124561e93d3cbb1ff4922783f13bc00df8926114759291889188918b9160ff91909116908990613e5e565b60405180910390a25050505050505050565b3360009081526013602090815260408083206001600160a01b038516845290915290205460ff166114e95760405162461bcd60e51b815260206004820152600c60248201526b139bdd081848199c9a595b9960a21b6044820152606401610bc1565b336000908152601260205260408120805490915b818110156115f457836001600160a01b031683828154811061152157611521613df7565b6000918252602090912001546001600160a01b0316036115ec5782611547600184613de4565b8154811061155757611557613df7565b9060005260206000200160009054906101000a90046001600160a01b031683828154811061158757611587613df7565b9060005260206000200160006101000a8154816001600160a01b0302191690836001600160a01b03160217905550828054806115c5576115c5613e99565b600082815260209020810160001990810180546001600160a01b03191690550190556115f4565b6001016114fd565b503360008181526013602090815260408083206001600160a01b03881684528252808320805460ff191690559282526014905290812080549161163683613eaf565b90915550506040514281526001600160a01b0384169033907f969004a2b12b94321909d327bc9dc2a4fb7372ba3df22c77c30edcb6c1e6106a9060200160405180910390a3505050565b6002600154036116a25760405162461bcd60e51b8152600401610bc190613d8f565b6002600155336000908152600b602052604090205460ff166116cb576116c66110a1565b61176f565b336000908152600a602052604090206003810154421180156116f15750600781015460ff165b156117285760078101805460ff19908116909155336000908152600b60205260409020805490911690556117236110a1565b61176d565b600781015460ff1661176d5760405162461bcd60e51b815260206004820152600e60248201526d11d85b594818dbdb5c1b195d195960921b6044820152606401610bc1565b505b336000908152600e602052604090205460ff16156117c05760405162461bcd60e51b815260206004820152600e60248201526d121a5b9d081c1d5c98da185cd95960921b6044820152606401610bc1565b336000908152600a60205260409020600781015460ff166118135760405162461bcd60e51b815260206004820152600d60248201526c47616d6520696e61637469766560981b6044820152606401610bc1565b80600201544210156118555760405162461bcd60e51b815260206004820152600b60248201526a139bdd081cdd185c9d195960aa1b6044820152606401610bc1565b80600301544211156118965760405162461bcd60e51b815260206004820152600a60248201526911d85b5948195b99195960b21b6044820152606401610bc1565b80600601543410156118e15760405162461bcd60e51b8152602060048201526014602482015273125b9cdd59999a58da595b9d081c185e5b595b9d60621b6044820152606401610bc1565b336000908152600e60209081526040808320805460ff19166001179055600d9091528120600481018054919261191683613ec6565b919050555081600601543411156119bf576006820154600090339061193b9034613de4565b604051600081818185875af1925050503d8060008114611977576040519150601f19603f3d011682016040523d82523d6000602084013e61197c565b606091505b50509050806119bd5760405162461bcd60e51b815260206004820152600d60248201526c1499599d5b990819985a5b1959609a1b6044820152606401610bc1565b505b60068201546040805191825242602083015233917fce50b2158bf409b5b55ad54ccffe9b89027bf166abb2f5947b2ee72dbfb8b789910160405180910390a2600a816004015410158015611a2657506005600090815260078201602052604090205460ff16155b15611a72576005600081815260078301602052604090819020805460ff19166001179055513391600080516020613f8e83398151915291611a6991904290613edf565b60405180910390a25b505060018055565b6000546001600160a01b03163314611aa45760405162461bcd60e51b8152600401610bc190613d6c565b60008211611ae95760405162461bcd60e51b8152602060048201526012602482015271125b9d985b1a59081b5a5b881c995dd85c9960721b6044820152606401610bc1565b81811015611b2e5760405162461bcd60e51b8152602060048201526012602482015271125b9d985b1a59081b585e081c995dd85c9960721b6044820152606401610bc1565b600391909155600455565b611b41613844565b336000908152600b602052604090205460ff16611b6557611b60612d2e565b905090565b600a6000336001600160a01b03166001600160a01b031681526020019081526020016000206040518061014001604052908160008201548152602001600182015481526020016002820154815260200160038201548152602001600482015481526020016005820160009054906101000a900460ff166002811115611bec57611bec613937565b6002811115611bfd57611bfd613937565b815260068201546020820152600782015460ff161515604082015260088201546060820152600990910154608090910152919050565b6040805160078082526101008201909252606091600091906020820160e0803683375050506001600160a01b0384166000908152600d60209081526040808320838052600781019092528220548351939450909260ff909116918491611c9b57611c9b613df7565b9115156020928302919091018201526001600081815260078401909252604090912054835160ff9091169184918110611cd657611cd6613df7565b9115156020928302919091018201526002600081815260078401909252604090912054835160ff9091169184918110611d1157611d11613df7565b9115156020928302919091018201526003600081815260078401909252604090912054835160ff9091169184918110611d4c57611d4c613df7565b9115156020928302919091018201526004600081815260078401909252604090912054835160ff9091169184918110611d8757611d87613df7565b9115156020928302919091018201526005600081815260078401909252604090912054835160ff9091169184918110611dc257611dc2613df7565b9115156020928302919091018201526006600081815260078401909252604090912054835160ff9091169184918110611dfd57611dfd613df7565b911515602092830291909101909101525092915050565b336000908152600b602052604090205460ff1615611e9657336000908152600a60205260409020600781015460ff1615611e945760078101805460ff1916905560088101546040805191825242602083015233917fe3b774cfd7ea28729e7829411c6dfb5be69d56f78c5ce78ad8a0a26668aeff1f910160405180910390a25b505b336000908152600b60209081526040808320805460ff19908116909155600e90925290912080549091169055611eca6110a1565b565b6000546001600160a01b03163314611ef65760405162461bcd60e51b8152600401610bc190613d6c565b82611f325760405162461bcd60e51b815260206004820152600c60248201526b092dcecc2d8d2c840d0c2e6d60a31b6044820152606401610bc1565b6003548210158015611f4657506004548211155b611f835760405162461bcd60e51b815260206004820152600e60248201526d125b9d985b1a59081c995dd85c9960921b6044820152606401610bc1565b6007805460009182611f9483613ec6565b9190505590506040518060800160405280858152602001848152602001836002811115611fc357611fc3613937565b815260016020918201819052600084815260088352604090819020845181559284015183830155830151600280840180549293909260ff191691849081111561200e5761200e613937565b021790555060609190910151600290910180549115156101000261ff0019909216919091179055600980546001810182556000919091527f6e1540171b6c0c960b71a7020d9f60077f6af931a8bbf590da0223dacf75c7af0181905560405181907f13978e0ebdf16d7a101458d917145fd9ea33278408b09b50b6ddee64e8b78926906120a090879086908890613efd565b60405180910390a250505050565b6000546001600160a01b031633146120d85760405162461bcd60e51b8152600401610bc190613d6c565b600081815260086020526040902060020154610100900460ff166121315760405162461bcd60e51b815260206004820152601060248201526f416c726561647920696e61637469766560801b6044820152606401610bc1565b6000818152600860205260408120600201805461ff0019169055600954905b818110156121f757826009828154811061216c5761216c613df7565b9060005260206000200154036121ef576009612189600184613de4565b8154811061219957612199613df7565b9060005260206000200154600982815481106121b7576121b7613df7565b60009182526020909120015560098054806121d4576121d4613e99565b60019003818190600052602060002001600090559055505050565b600101612150565b505050565b6010818154811061220c57600080fd5b6000918252602090912001546001600160a01b0316905081565b6000546001600160a01b031633146122505760405162461bcd60e51b8152600401610bc190613d6c565b600081116122935760405162461bcd60e51b815260206004820152601060248201526f24b73b30b634b210323ab930ba34b7b760811b6044820152606401610bc1565b600280549082905560408051828152602081018490527f36b9aca3feccb4594f022bf34d0d00ba598abe5203b6dd971fa6196141162c8d910160405180910390a15050565b6002600154036122fa5760405162461bcd60e51b8152600401610bc190613d8f565b6002600155805161233b5760405162461bcd60e51b815260206004820152600b60248201526a456d70747920677565737360a81b6044820152606401610bc1565b336000908152600b602052604090205460ff1661235f5761235a6110a1565b612403565b336000908152600a602052604090206003810154421180156123855750600781015460ff165b156123bc5760078101805460ff19908116909155336000908152600b60205260409020805490911690556123b76110a1565b612401565b600781015460ff166124015760405162461bcd60e51b815260206004820152600e60248201526d11d85b594818dbdb5c1b195d195960921b6044820152606401610bc1565b505b336000908152600a60205260409020600781015460ff166124565760405162461bcd60e51b815260206004820152600d60248201526c47616d6520696e61637469766560981b6044820152606401610bc1565b80600201544210156124985760405162461bcd60e51b815260206004820152600b60248201526a139bdd081cdd185c9d195960aa1b6044820152606401610bc1565b80600301544211156124d95760405162461bcd60e51b815260206004820152600a60248201526911d85b5948195b99195960b21b6044820152606401610bc1565b6008810180549060006124eb83613ec6565b919050555060006124fb83612da0565b805160208201206040519192509033907feb4d052dc437bbfe8a8f0cf9a531e915426f05f2b3c94786130a4bed6515326b9061253a9085904290613f1f565b60405180910390a28260010154810361255b5761255633612fde565b6125a4565b336000908152600d602052604081206005015560405142815233907fe074bd69166fe924b0b96492e5fa059248f6791ac89c8de30cf016e124afef469060200160405180910390a25b336000818152600d60205260409020426003820155906125c390613340565b505060018055505050565b6000546001600160a01b031633146125f85760405162461bcd60e51b8152600401610bc190613d6c565b61271081101561263f5760405162461bcd60e51b81526020600482015260126024820152714d756c7469706c69657220746f6f206c6f7760701b6044820152606401610bc1565b61c3508111156126875760405162461bcd60e51b815260206004820152601360248201527209aead8e8d2e0d8d2cae440e8dede40d0d2ced606b1b6044820152606401610bc1565b806005600084600281111561269e5761269e613937565b60028111156126af576126af613937565b81526020810191909152604001600020555050565b6060600082116127065760405162461bcd60e51b815260206004820152600d60248201526c125b9d985b1a590818dbdd5b9d609a1b6044820152606401610bc1565b60105480831115612715578092505b60008367ffffffffffffffff81111561273057612730613c34565b60405190808252806020026020018201604052801561277557816020015b604080518082019091526000808252602082015281526020019060019003908161274e5790505b50905060005b84811015612832576040518060400160405280601083815481106127a1576127a1613df7565b9060005260206000200160009054906101000a90046001600160a01b03166001600160a01b0316815260200160116000601085815481106127e4576127e4613df7565b60009182526020808320909101546001600160a01b031683528201929092526040019020549052825183908390811061281f5761281f613df7565b602090810291909101015260010161277b565b509392505050565b6000546001600160a01b031633146128645760405162461bcd60e51b8152600401610bc190613d6c565b600081116128a35760405162461bcd60e51b815260206004820152600c60248201526b125b9d985b1a590818dbdcdd60a21b6044820152606401610bc1565b806006600084600281111561269e5761269e613937565b6128c2613844565b6001600160a01b0382166000908152600b602052604090205460ff166128ea57610e12612d2e565b600a6000836001600160a01b03166001600160a01b031681526020019081526020016000206040518061014001604052908160008201548152602001600182015481526020016002820154815260200160038201548152602001600482015481526020016005820160009054906101000a900460ff16600281111561297157612971613937565b600281111561298257612982613937565b815260068201546020820152600782015460ff16151560408201526008820154606082015260099091015460809091015292915050565b601260205281600052604060002081815481106129d557600080fd5b6000918252602090912001546001600160a01b03169150829050565b6001600160a01b038116612a395760405162461bcd60e51b815260206004820152600f60248201526e496e76616c6964206164647265737360881b6044820152606401610bc1565b336001600160a01b03821603612a835760405162461bcd60e51b815260206004820152600f60248201526e21b0b73737ba1030b2321039b2b63360891b6044820152606401610bc1565b3360009081526013602090815260408083206001600160a01b038516845290915290205460ff1615612ae95760405162461bcd60e51b815260206004820152600f60248201526e416c726561647920667269656e647360881b6044820152606401610bc1565b33600090815260146020526040902054606411612b365760405162461bcd60e51b815260206004820152600b60248201526a4d617820667269656e647360a81b6044820152606401610bc1565b3360008181526012602090815260408083208054600180820183559185528385200180546001600160a01b0319166001600160a01b038816908117909155858552601384528285209085528352818420805460ff1916909117905592825260149052908120805491612ba783613ec6565b90915550506040514281526001600160a01b0382169033907f3365f8db520261f96abff7e0cf11cf08c78948d7bba32f8e3cef112242f8f2479060200160405180910390a3336000908152600d60209081526040808320601490925290912054600a11801590612c2a57506006600090815260078201602052604090205460ff16155b15612c76576006600081815260078301602052604090819020805460ff19166001179055513391600080516020613f8e83398151915291612c6d91904290613edf565b60405180910390a25b5050565b60098181548110612c8a57600080fd5b600091825260209091200154905081565b60003411612cdc5760405162461bcd60e51b815260206004820152600e60248201526d4d7573742073656e642043454c4f60901b6044820152606401610bc1565b60405134815233907f543ba50a5eec5e6178218e364b1d0f396157b3c8fa278522c2cb7fd99407d4749060200160405180910390a2565b600080612d1f83612da0565b80516020909101209392505050565b612d36613844565b604051806101400160405280600081526020016000801b815260200160008152602001600081526020016000815260200160006002811115612d7a57612d7a613937565b815260200160008152602001600015158152602001600081526020016000815250905090565b80516060908290600003612db5575090919050565b60005b815181108015612dec5750818181518110612dd557612dd5613df7565b6020910101516001600160f81b031916600160fd1b145b15612e035780612dfb81613ec6565b915050612db8565b81515b8181118015612e43575082612e1c600183613de4565b81518110612e2c57612e2c613df7565b6020910101516001600160f81b031916600160fd1b145b15612e5a5780612e5281613eaf565b915050612e06565b6000612e668383613de4565b67ffffffffffffffff811115612e7e57612e7e613c34565b6040519080825280601f01601f191660200182016040528015612ea8576020820181803683370190505b509050825b82811015612fd457604160f81b858281518110612ecc57612ecc613df7565b01602001516001600160f81b03191610801590612f0d5750605a60f81b858281518110612efb57612efb613df7565b01602001516001600160f81b03191611155b15612f7857848181518110612f2457612f24613df7565b602001015160f81c60f81b60f81c6020612f3e9190613f74565b60f81b82612f4c8684613de4565b81518110612f5c57612f5c613df7565b60200101906001600160f81b031916908160001a905350612fcc565b848181518110612f8a57612f8a613df7565b01602001516001600160f81b03191682612fa48684613de4565b81518110612fb457612fb4613df7565b60200101906001600160f81b031916908160001a9053505b600101612ead565b5095945050505050565b6001600160a01b0381166000908152600a60209081526040808320600c835281842054600f845282852081865290935292205460ff161561304f5760405162461bcd60e51b815260206004820152600b60248201526a20b63932b0b23c903bb7b760a91b6044820152606401610bc1565b60098201805490600061306183613ec6565b90915550506001600160a01b0383166000818152600f6020908152604080832085845282528083208054600160ff1991821681179092556007880180549091169055938352600d90915281209182018054916130bc83613ec6565b909155505080548160006130cf83613ec6565b919050555082600401548160020160008282546130ec9190613e4b565b909155505060058101805490600061310383613ec6565b919050555080600601548160050154111561312357600581015460068201555b600180600585015460ff16600281111561313f5761313f613937565b0361314c57506002613170565b6002600585015460ff16600281111561316757613167613937565b03613170575060035b6001600160a01b03851660009081526011602052604081208054839290613198908490613e4b565b909155506131a79050856135b5565b83600401544710156131f25760405162461bcd60e51b8152602060048201526014602482015273496e73756666696369656e742062616c616e636560601b6044820152606401610bc1565b60048401546040516000916001600160a01b038816918381818185875af1925050503d8060008114613240576040519150601f19603f3d011682016040523d82523d6000602084013e613245565b606091505b50509050806132885760405162461bcd60e51b815260206004820152600f60248201526e151c985b9cd9995c8819985a5b1959608a1b6044820152606401610bc1565b6004850154604080519182524260208301526001600160a01b038816917fdfde8e3150a5e48ee47e52ae57f889fc26736e87722e7f86405fe1975750178c910160405180910390a26008850154604080519182524260208301526001600160a01b038816917fe3b774cfd7ea28729e7829411c6dfb5be69d56f78c5ce78ad8a0a26668aeff1f910160405180910390a25050506001600160a01b039092166000908152600b60205260409020805460ff191690555050565b6001600160a01b0381166000908152600d6020526040902060018082015414801561337c5750600080805260078201602052604090205460ff16155b156133ce576000808052600782016020526040808220805460ff19166001179055516001600160a01b03841691600080516020613f8e833981519152916133c591904290613edf565b60405180910390a25b8060010154600a1480156133f557506001600090815260078201602052604090205460ff16155b15613449576001600081815260078301602052604090819020805460ff191683179055516001600160a01b03841691600080516020613f8e8339815191529161344091904290613edf565b60405180910390a25b8060010154603214801561347057506002600090815260078201602052604090205460ff16155b156134c5576002600081815260078301602052604090819020805460ff19166001179055516001600160a01b03841691600080516020613f8e833981519152916134bc91904290613edf565b60405180910390a25b806001015460641480156134ec57506003600090815260078201602052604090205460ff16155b15613541576003600081815260078301602052604090819020805460ff19166001179055516001600160a01b03841691600080516020613f8e8339815191529161353891904290613edf565b60405180910390a25b600a81600501541015801561356957506004600090815260078201602052604090205460ff16155b15612c76576004600081815260078301602052604090819020805460ff19166001179055516001600160a01b03841691600080516020613f8e83398151915291612c6d91904290613edf565b601054600090815b8181101561360d57836001600160a01b0316601082815481106135e2576135e2613df7565b6000918252602090912001546001600160a01b031603613605576001925061360d565b6001016135bd565b508161365f57601080546001810182556000919091527f1b6847dc741a1b0cd08d278845f9d819d87b734759afb55fe2de5cb82a9ae6720180546001600160a01b0319166001600160a01b0385161790555b6121f7601054600181116136705750565b60005b61367e600183613de4565b811015612c765760005b60016136948385613de4565b61369e9190613de4565b81101561383b576011600060106136b6846001613e4b565b815481106136c6576136c6613df7565b9060005260206000200160009054906101000a90046001600160a01b03166001600160a01b03166001600160a01b0316815260200190815260200160002054601160006010848154811061371c5761371c613df7565b60009182526020808320909101546001600160a01b0316835282019290925260400190205410156138335760006010828154811061375c5761375c613df7565b6000918252602090912001546001600160a01b031690506010613780836001613e4b565b8154811061379057613790613df7565b600091825260209091200154601080546001600160a01b0390921691849081106137bc576137bc613df7565b600091825260209091200180546001600160a01b0319166001600160a01b03929092169190911790558060106137f3846001613e4b565b8154811061380357613803613df7565b9060005260206000200160006101000a8154816001600160a01b0302191690836001600160a01b03160217905550505b600101613688565b50600101613673565b60405180610140016040528060008152602001600080191681526020016000815260200160008152602001600081526020016000600281111561388957613889613937565b81526020016000815260200160001515815260200160008152602001600081525090565b6000602082840312156138bf57600080fd5b5035919050565b80356001600160a01b03811681146138dd57600080fd5b919050565b600080604083850312156138f557600080fd5b6138fe836138c6565b915061390c602084016138c6565b90509250929050565b60006020828403121561392757600080fd5b613930826138c6565b9392505050565b634e487b7160e01b600052602160045260246000fd5b6003811061395d5761395d613937565b9052565b6000610140820190508b82528a602083015289604083015288606083015287608083015261399260a083018861394d565b60c082019590955292151560e0840152610100830191909152610120909101529695505050505050565b600080604083850312156139cf57600080fd5b6139d8836138c6565b91506020830135600781106139ec57600080fd5b809150509250929050565b8035600381106138dd57600080fd5b600060208284031215613a1857600080fd5b613930826139f7565b8481526020810184905260808101613a3c604083018561394d565b821515606083015295945050505050565b60008060408385031215613a6057600080fd5b613a69836138c6565b946020939093013593505050565b602080825282518282018190526000918401906040840190835b81811015613ab85783516001600160a01b0316835260209384019390920191600101613a91565b509095945050505050565b602080825282518282018190526000918401906040840190835b81811015613ab857835180516001600160a01b031684526020808201518186015260409182015115159185019190915290930192606090920191600101613add565b60008060408385031215613b3257600080fd5b50508035926020909101359150565b600061014082019050825182526020830151602083015260408301516040830152606083015160608301526080830151608083015260a0830151613b8860a084018261394d565b5060c083015160c083015260e0830151613ba660e084018215159052565b5061010083015161010083015261012083015161012083015292915050565b602080825282518282018190526000918401906040840190835b81811015613ab85783511515835260209384019390920191600101613bdf565b600080600060608486031215613c1457600080fd5b8335925060208401359150613c2b604085016139f7565b90509250925092565b634e487b7160e01b600052604160045260246000fd5b600060208284031215613c5c57600080fd5b813567ffffffffffffffff811115613c7357600080fd5b8201601f81018413613c8457600080fd5b803567ffffffffffffffff811115613c9e57613c9e613c34565b604051601f8201601f19908116603f0116810167ffffffffffffffff81118282101715613ccd57613ccd613c34565b604052818152828201602001861015613ce557600080fd5b81602084016020830137600091810160200191909152949350505050565b60008060408385031215613d1657600080fd5b613a69836139f7565b602080825282518282018190526000918401906040840190835b81811015613ab857835180516001600160a01b031684526020908101518185015290930192604090920191600101613d39565b6020808252600990820152682737ba1037bbb732b960b91b604082015260600190565b6020808252600e908201526d1499595b9d1c985b9d0818d85b1b60921b604082015260600190565b634e487b7160e01b600052601160045260246000fd5b8082028115828204841417610e1257610e12613db7565b81810381811115610e1257610e12613db7565b634e487b7160e01b600052603260045260246000fd5b634e487b7160e01b600052601260045260246000fd5b600082613e3257613e32613e0d565b500690565b600082613e4657613e46613e0d565b500490565b80820180821115610e1257610e12613db7565b600060c082019050878252866020830152856040830152846060830152613e88608083018561394d565b8260a0830152979650505050505050565b634e487b7160e01b600052603160045260246000fd5b600081613ebe57613ebe613db7565b506000190190565b600060018201613ed857613ed8613db7565b5060010190565b6040810160078410613ef357613ef3613937565b9281526020015290565b83815260608101613f11602083018561394d565b826040830152949350505050565b604081526000835180604084015260005b81811015613f4d5760208187018101516060868401015201613f30565b506000606082850101526060601f19601f8301168401019150508260208301529392505050565b60ff8181168382160190811115610e1257610e12613db756fe4a6601ee750cec6b98251f26f4680f6937e0c3ce2f685306a708bdadf3fe66a5a26469706673582212200123079c37ab2862535355781a3e87df212d2a722dd19bb40c8388ab930beb8664736f6c634300081c0033",
  "linkReferences": {},
  "deployedLinkReferences": {}
}